{
  "_format": "hh-sol-artifact-1",
  "contractName": "BruhBear",
  "sourceName": "contracts/BruhBear.sol",
  "abi": [
    {
      "inputs": [],
      "stateMutability": "nonpayable",
      "type": "constructor"
    },
    {
      "anonymous": false,
      "inputs": [
        {
          "indexed": true,
          "internalType": "address",
          "name": "owner",
          "type": "address"
        },
        {
          "indexed": true,
          "internalType": "address",
          "name": "approved",
          "type": "address"
        },
        {
          "indexed": true,
          "internalType": "uint256",
          "name": "tokenId",
          "type": "uint256"
        }
      ],
      "name": "Approval",
      "type": "event"
    },
    {
      "anonymous": false,
      "inputs": [
        {
          "indexed": true,
          "internalType": "address",
          "name": "owner",
          "type": "address"
        },
        {
          "indexed": true,
          "internalType": "address",
          "name": "operator",
          "type": "address"
        },
        {
          "indexed": false,
          "internalType": "bool",
          "name": "approved",
          "type": "bool"
        }
      ],
      "name": "ApprovalForAll",
      "type": "event"
    },
    {
      "anonymous": false,
      "inputs": [
        {
          "indexed": false,
          "internalType": "uint256",
          "name": "_fromTokenId",
          "type": "uint256"
        },
        {
          "indexed": false,
          "internalType": "uint256",
          "name": "_toTokenId",
          "type": "uint256"
        }
      ],
      "name": "BatchMetadataUpdate",
      "type": "event"
    },
    {
      "anonymous": false,
      "inputs": [
        {
          "indexed": false,
          "internalType": "uint256",
          "name": "_tokenId",
          "type": "uint256"
        }
      ],
      "name": "MetadataUpdate",
      "type": "event"
    },
    {
      "anonymous": false,
      "inputs": [
        {
          "indexed": true,
          "internalType": "address",
          "name": "previousOwner",
          "type": "address"
        },
        {
          "indexed": true,
          "internalType": "address",
          "name": "newOwner",
          "type": "address"
        }
      ],
      "name": "OwnershipTransferred",
      "type": "event"
    },
    {
      "anonymous": false,
      "inputs": [
        {
          "indexed": true,
          "internalType": "address",
          "name": "from",
          "type": "address"
        },
        {
          "indexed": true,
          "internalType": "address",
          "name": "to",
          "type": "address"
        },
        {
          "indexed": true,
          "internalType": "uint256",
          "name": "tokenId",
          "type": "uint256"
        }
      ],
      "name": "Transfer",
      "type": "event"
    },
    {
      "inputs": [
        {
          "internalType": "address",
          "name": "to",
          "type": "address"
        },
        {
          "internalType": "uint256",
          "name": "tokenId",
          "type": "uint256"
        }
      ],
      "name": "approve",
      "outputs": [],
      "stateMutability": "nonpayable",
      "type": "function"
    },
    {
      "inputs": [
        {
          "internalType": "address",
          "name": "owner",
          "type": "address"
        }
      ],
      "name": "balanceOf",
      "outputs": [
        {
          "internalType": "uint256",
          "name": "",
          "type": "uint256"
        }
      ],
      "stateMutability": "view",
      "type": "function"
    },
    {
      "inputs": [
        {
          "internalType": "uint256",
          "name": "tokenId",
          "type": "uint256"
        }
      ],
      "name": "getApproved",
      "outputs": [
        {
          "internalType": "address",
          "name": "",
          "type": "address"
        }
      ],
      "stateMutability": "view",
      "type": "function"
    },
    {
      "inputs": [
        {
          "internalType": "address",
          "name": "owner",
          "type": "address"
        },
        {
          "internalType": "address",
          "name": "operator",
          "type": "address"
        }
      ],
      "name": "isApprovedForAll",
      "outputs": [
        {
          "internalType": "bool",
          "name": "",
          "type": "bool"
        }
      ],
      "stateMutability": "view",
      "type": "function"
    },
    {
      "inputs": [],
      "name": "name",
      "outputs": [
        {
          "internalType": "string",
          "name": "",
          "type": "string"
        }
      ],
      "stateMutability": "view",
      "type": "function"
    },
    {
      "inputs": [],
      "name": "owner",
      "outputs": [
        {
          "internalType": "address",
          "name": "",
          "type": "address"
        }
      ],
      "stateMutability": "view",
      "type": "function"
    },
    {
      "inputs": [
        {
          "internalType": "uint256",
          "name": "tokenId",
          "type": "uint256"
        }
      ],
      "name": "ownerOf",
      "outputs": [
        {
          "internalType": "address",
          "name": "",
          "type": "address"
        }
      ],
      "stateMutability": "view",
      "type": "function"
    },
    {
      "inputs": [],
      "name": "renounceOwnership",
      "outputs": [],
      "stateMutability": "nonpayable",
      "type": "function"
    },
    {
      "inputs": [
        {
          "internalType": "address",
          "name": "to",
          "type": "address"
        },
        {
          "internalType": "string",
          "name": "uri",
          "type": "string"
        }
      ],
      "name": "safeMint",
      "outputs": [],
      "stateMutability": "nonpayable",
      "type": "function"
    },
    {
      "inputs": [
        {
          "internalType": "address",
          "name": "from",
          "type": "address"
        },
        {
          "internalType": "address",
          "name": "to",
          "type": "address"
        },
        {
          "internalType": "uint256",
          "name": "tokenId",
          "type": "uint256"
        }
      ],
      "name": "safeTransferFrom",
      "outputs": [],
      "stateMutability": "nonpayable",
      "type": "function"
    },
    {
      "inputs": [
        {
          "internalType": "address",
          "name": "from",
          "type": "address"
        },
        {
          "internalType": "address",
          "name": "to",
          "type": "address"
        },
        {
          "internalType": "uint256",
          "name": "tokenId",
          "type": "uint256"
        },
        {
          "internalType": "bytes",
          "name": "data",
          "type": "bytes"
        }
      ],
      "name": "safeTransferFrom",
      "outputs": [],
      "stateMutability": "nonpayable",
      "type": "function"
    },
    {
      "inputs": [
        {
          "internalType": "address",
          "name": "operator",
          "type": "address"
        },
        {
          "internalType": "bool",
          "name": "approved",
          "type": "bool"
        }
      ],
      "name": "setApprovalForAll",
      "outputs": [],
      "stateMutability": "nonpayable",
      "type": "function"
    },
    {
      "inputs": [
        {
          "internalType": "bytes4",
          "name": "interfaceId",
          "type": "bytes4"
        }
      ],
      "name": "supportsInterface",
      "outputs": [
        {
          "internalType": "bool",
          "name": "",
          "type": "bool"
        }
      ],
      "stateMutability": "view",
      "type": "function"
    },
    {
      "inputs": [],
      "name": "symbol",
      "outputs": [
        {
          "internalType": "string",
          "name": "",
          "type": "string"
        }
      ],
      "stateMutability": "view",
      "type": "function"
    },
    {
      "inputs": [
        {
          "internalType": "uint256",
          "name": "index",
          "type": "uint256"
        }
      ],
      "name": "tokenByIndex",
      "outputs": [
        {
          "internalType": "uint256",
          "name": "",
          "type": "uint256"
        }
      ],
      "stateMutability": "view",
      "type": "function"
    },
    {
      "inputs": [
        {
          "internalType": "address",
          "name": "owner",
          "type": "address"
        },
        {
          "internalType": "uint256",
          "name": "index",
          "type": "uint256"
        }
      ],
      "name": "tokenOfOwnerByIndex",
      "outputs": [
        {
          "internalType": "uint256",
          "name": "",
          "type": "uint256"
        }
      ],
      "stateMutability": "view",
      "type": "function"
    },
    {
      "inputs": [
        {
          "internalType": "uint256",
          "name": "tokenId",
          "type": "uint256"
        }
      ],
      "name": "tokenURI",
      "outputs": [
        {
          "internalType": "string",
          "name": "",
          "type": "string"
        }
      ],
      "stateMutability": "view",
      "type": "function"
    },
    {
      "inputs": [],
      "name": "totalSupply",
      "outputs": [
        {
          "internalType": "uint256",
          "name": "",
          "type": "uint256"
        }
      ],
      "stateMutability": "view",
      "type": "function"
    },
    {
      "inputs": [
        {
          "internalType": "address",
          "name": "from",
          "type": "address"
        },
        {
          "internalType": "address",
          "name": "to",
          "type": "address"
        },
        {
          "internalType": "uint256",
          "name": "tokenId",
          "type": "uint256"
        }
      ],
      "name": "transferFrom",
      "outputs": [],
      "stateMutability": "nonpayable",
      "type": "function"
    },
    {
      "inputs": [
        {
          "internalType": "address",
          "name": "newOwner",
          "type": "address"
        }
      ],
      "name": "transferOwnership",
      "outputs": [],
      "stateMutability": "nonpayable",
      "type": "function"
    }
  ],
  "bytecode": "0x60806040523480156200001157600080fd5b506040518060400160405280600781526020017f487579204e4654000000000000000000000000000000000000000000000000008152506040518060400160405280600381526020017f484e54000000000000000000000000000000000000000000000000000000000081525081600090816200008f919062000412565b508060019081620000a1919062000412565b505050620000c4620000b8620000ca60201b60201c565b620000d260201b60201c565b620004f9565b600033905090565b6000600b60009054906101000a900473ffffffffffffffffffffffffffffffffffffffff16905081600b60006101000a81548173ffffffffffffffffffffffffffffffffffffffff021916908373ffffffffffffffffffffffffffffffffffffffff1602179055508173ffffffffffffffffffffffffffffffffffffffff168173ffffffffffffffffffffffffffffffffffffffff167f8be0079c531659141344cd1fd0a4f28419497f9722a3daafe3b4186f6b6457e060405160405180910390a35050565b600081519050919050565b7f4e487b7100000000000000000000000000000000000000000000000000000000600052604160045260246000fd5b7f4e487b7100000000000000000000000000000000000000000000000000000000600052602260045260246000fd5b600060028204905060018216806200021a57607f821691505b60208210810362000230576200022f620001d2565b5b50919050565b60008190508160005260206000209050919050565b60006020601f8301049050919050565b600082821b905092915050565b6000600883026200029a7fffffffffffffffffffffffffffffffffffffffffffffffffffffffffffffffff826200025b565b620002a686836200025b565b95508019841693508086168417925050509392505050565b6000819050919050565b6000819050919050565b6000620002f3620002ed620002e784620002be565b620002c8565b620002be565b9050919050565b6000819050919050565b6200030f83620002d2565b620003276200031e82620002fa565b84845462000268565b825550505050565b600090565b6200033e6200032f565b6200034b81848462000304565b505050565b5b8181101562000373576200036760008262000334565b60018101905062000351565b5050565b601f821115620003c2576200038c8162000236565b62000397846200024b565b81016020851015620003a7578190505b620003bf620003b6856200024b565b83018262000350565b50505b505050565b600082821c905092915050565b6000620003e760001984600802620003c7565b1980831691505092915050565b6000620004028383620003d4565b9150826002028217905092915050565b6200041d8262000198565b67ffffffffffffffff811115620004395762000438620001a3565b5b62000445825462000201565b6200045282828562000377565b600060209050601f8311600181146200048a576000841562000475578287015190505b620004818582620003f4565b865550620004f1565b601f1984166200049a8662000236565b60005b82811015620004c4578489015182556001820191506020850194506020810190506200049d565b86831015620004e45784890151620004e0601f891682620003d4565b8355505b6001600288020188555050505b505050505050565b6137f380620005096000396000f3fe608060405234801561001057600080fd5b506004361061012c5760003560e01c806370a08231116100ad578063b88d4fde11610071578063b88d4fde14610343578063c87b56dd1461035f578063d204c45e1461038f578063e985e9c5146103ab578063f2fde38b146103db5761012c565b806370a08231146102b1578063715018a6146102e15780638da5cb5b146102eb57806395d89b4114610309578063a22cb465146103275761012c565b806323b872dd116100f457806323b872dd146101e95780632f745c591461020557806342842e0e146102355780634f6ccce7146102515780636352211e146102815761012c565b806301ffc9a71461013157806306fdde0314610161578063081812fc1461017f578063095ea7b3146101af57806318160ddd146101cb575b600080fd5b61014b6004803603810190610146919061236d565b6103f7565b60405161015891906123b5565b60405180910390f35b610169610409565b6040516101769190612460565b60405180910390f35b610199600480360381019061019491906124b8565b61049b565b6040516101a69190612526565b60405180910390f35b6101c960048036038101906101c4919061256d565b6104e1565b005b6101d36105f8565b6040516101e091906125bc565b60405180910390f35b61020360048036038101906101fe91906125d7565b610605565b005b61021f600480360381019061021a919061256d565b610665565b60405161022c91906125bc565b60405180910390f35b61024f600480360381019061024a91906125d7565b61070a565b005b61026b600480360381019061026691906124b8565b61072a565b60405161027891906125bc565b60405180910390f35b61029b600480360381019061029691906124b8565b61079b565b6040516102a89190612526565b60405180910390f35b6102cb60048036038101906102c6919061262a565b610821565b6040516102d891906125bc565b60405180910390f35b6102e96108d8565b005b6102f36108ec565b6040516103009190612526565b60405180910390f35b610311610916565b60405161031e9190612460565b60405180910390f35b610341600480360381019061033c9190612683565b6109a8565b005b61035d600480360381019061035891906127f8565b6109be565b005b610379600480360381019061037491906124b8565b610a20565b6040516103869190612460565b60405180910390f35b6103a960048036038101906103a4919061291c565b610a32565b005b6103c560048036038101906103c09190612978565b610a63565b6040516103d291906123b5565b60405180910390f35b6103f560048036038101906103f0919061262a565b610af7565b005b600061040282610b7a565b9050919050565b606060008054610418906129e7565b80601f0160208091040260200160405190810160405280929190818152602001828054610444906129e7565b80156104915780601f1061046657610100808354040283529160200191610491565b820191906000526020600020905b81548152906001019060200180831161047457829003601f168201915b5050505050905090565b60006104a682610bdb565b6004600083815260200190815260200160002060009054906101000a900473ffffffffffffffffffffffffffffffffffffffff169050919050565b60006104ec8261079b565b90508073ffffffffffffffffffffffffffffffffffffffff168373ffffffffffffffffffffffffffffffffffffffff160361055c576040517f08c379a000000000000000000000000000000000000000000000000000000000815260040161055390612a8a565b60405180910390fd5b8073ffffffffffffffffffffffffffffffffffffffff1661057b610c26565b73ffffffffffffffffffffffffffffffffffffffff1614806105aa57506105a9816105a4610c26565b610a63565b5b6105e9576040517f08c379a00000000000000000000000000000000000000000000000000000000081526004016105e090612b1c565b60405180910390fd5b6105f38383610c2e565b505050565b6000600880549050905090565b610616610610610c26565b82610ce7565b610655576040517f08c379a000000000000000000000000000000000000000000000000000000000815260040161064c90612bae565b60405180910390fd5b610660838383610d7c565b505050565b600061067083610821565b82106106b1576040517f08c379a00000000000000000000000000000000000000000000000000000000081526004016106a890612c40565b60405180910390fd5b600660008473ffffffffffffffffffffffffffffffffffffffff1673ffffffffffffffffffffffffffffffffffffffff168152602001908152602001600020600083815260200190815260200160002054905092915050565b610725838383604051806020016040528060008152506109be565b505050565b60006107346105f8565b8210610775576040517f08c379a000000000000000000000000000000000000000000000000000000000815260040161076c90612cd2565b60405180910390fd5b6008828154811061078957610788612cf2565b5b90600052602060002001549050919050565b6000806107a783611075565b9050600073ffffffffffffffffffffffffffffffffffffffff168173ffffffffffffffffffffffffffffffffffffffff1603610818576040517f08c379a000000000000000000000000000000000000000000000000000000000815260040161080f90612d6d565b60405180910390fd5b80915050919050565b60008073ffffffffffffffffffffffffffffffffffffffff168273ffffffffffffffffffffffffffffffffffffffff1603610891576040517f08c379a000000000000000000000000000000000000000000000000000000000815260040161088890612dff565b60405180910390fd5b600360008373ffffffffffffffffffffffffffffffffffffffff1673ffffffffffffffffffffffffffffffffffffffff168152602001908152602001600020549050919050565b6108e06110b2565b6108ea6000611130565b565b6000600b60009054906101000a900473ffffffffffffffffffffffffffffffffffffffff16905090565b606060018054610925906129e7565b80601f0160208091040260200160405190810160405280929190818152602001828054610951906129e7565b801561099e5780601f106109735761010080835404028352916020019161099e565b820191906000526020600020905b81548152906001019060200180831161098157829003601f168201915b5050505050905090565b6109ba6109b3610c26565b83836111f6565b5050565b6109cf6109c9610c26565b83610ce7565b610a0e576040517f08c379a0000000000000000000000000000000000000000000000000000000008152600401610a0590612bae565b60405180910390fd5b610a1a84848484611362565b50505050565b6060610a2b826113be565b9050919050565b6000610a3e600c6114d0565b9050610a4a600c6114de565b610a5483826114f4565b610a5e8183611512565b505050565b6000600560008473ffffffffffffffffffffffffffffffffffffffff1673ffffffffffffffffffffffffffffffffffffffff16815260200190815260200160002060008373ffffffffffffffffffffffffffffffffffffffff1673ffffffffffffffffffffffffffffffffffffffff16815260200190815260200160002060009054906101000a900460ff16905092915050565b610aff6110b2565b600073ffffffffffffffffffffffffffffffffffffffff168173ffffffffffffffffffffffffffffffffffffffff1603610b6e576040517f08c379a0000000000000000000000000000000000000000000000000000000008152600401610b6590612e91565b60405180910390fd5b610b7781611130565b50565b6000634906490660e01b7bffffffffffffffffffffffffffffffffffffffffffffffffffffffff1916827bffffffffffffffffffffffffffffffffffffffffffffffffffffffff19161480610bd45750610bd3826115b6565b5b9050919050565b610be481611630565b610c23576040517f08c379a0000000000000000000000000000000000000000000000000000000008152600401610c1a90612d6d565b60405180910390fd5b50565b600033905090565b816004600083815260200190815260200160002060006101000a81548173ffffffffffffffffffffffffffffffffffffffff021916908373ffffffffffffffffffffffffffffffffffffffff160217905550808273ffffffffffffffffffffffffffffffffffffffff16610ca18361079b565b73ffffffffffffffffffffffffffffffffffffffff167f8c5be1e5ebec7d5bd14f71427d1e84f3dd0314c0f7b2291e5b200ac8c7c3b92560405160405180910390a45050565b600080610cf38361079b565b90508073ffffffffffffffffffffffffffffffffffffffff168473ffffffffffffffffffffffffffffffffffffffff161480610d355750610d348185610a63565b5b80610d7357508373ffffffffffffffffffffffffffffffffffffffff16610d5b8461049b565b73ffffffffffffffffffffffffffffffffffffffff16145b91505092915050565b8273ffffffffffffffffffffffffffffffffffffffff16610d9c8261079b565b73ffffffffffffffffffffffffffffffffffffffff1614610df2576040517f08c379a0000000000000000000000000000000000000000000000000000000008152600401610de990612f23565b60405180910390fd5b600073ffffffffffffffffffffffffffffffffffffffff168273ffffffffffffffffffffffffffffffffffffffff1603610e61576040517f08c379a0000000000000000000000000000000000000000000000000000000008152600401610e5890612fb5565b60405180910390fd5b610e6e8383836001611671565b8273ffffffffffffffffffffffffffffffffffffffff16610e8e8261079b565b73ffffffffffffffffffffffffffffffffffffffff1614610ee4576040517f08c379a0000000000000000000000000000000000000000000000000000000008152600401610edb90612f23565b60405180910390fd5b6004600082815260200190815260200160002060006101000a81549073ffffffffffffffffffffffffffffffffffffffff02191690556001600360008573ffffffffffffffffffffffffffffffffffffffff1673ffffffffffffffffffffffffffffffffffffffff168152602001908152602001600020600082825403925050819055506001600360008473ffffffffffffffffffffffffffffffffffffffff1673ffffffffffffffffffffffffffffffffffffffff16815260200190815260200160002060008282540192505081905550816002600083815260200190815260200160002060006101000a81548173ffffffffffffffffffffffffffffffffffffffff021916908373ffffffffffffffffffffffffffffffffffffffff160217905550808273ffffffffffffffffffffffffffffffffffffffff168473ffffffffffffffffffffffffffffffffffffffff167fddf252ad1be2c89b69c2b068fc378daa952ba7f163c4a11628f55a4df523b3ef60405160405180910390a46110708383836001611683565b505050565b60006002600083815260200190815260200160002060009054906101000a900473ffffffffffffffffffffffffffffffffffffffff169050919050565b6110ba610c26565b73ffffffffffffffffffffffffffffffffffffffff166110d86108ec565b73ffffffffffffffffffffffffffffffffffffffff161461112e576040517f08c379a000000000000000000000000000000000000000000000000000000000815260040161112590613021565b60405180910390fd5b565b6000600b60009054906101000a900473ffffffffffffffffffffffffffffffffffffffff16905081600b60006101000a81548173ffffffffffffffffffffffffffffffffffffffff021916908373ffffffffffffffffffffffffffffffffffffffff1602179055508173ffffffffffffffffffffffffffffffffffffffff168173ffffffffffffffffffffffffffffffffffffffff167f8be0079c531659141344cd1fd0a4f28419497f9722a3daafe3b4186f6b6457e060405160405180910390a35050565b8173ffffffffffffffffffffffffffffffffffffffff168373ffffffffffffffffffffffffffffffffffffffff1603611264576040517f08c379a000000000000000000000000000000000000000000000000000000000815260040161125b9061308d565b60405180910390fd5b80600560008573ffffffffffffffffffffffffffffffffffffffff1673ffffffffffffffffffffffffffffffffffffffff16815260200190815260200160002060008473ffffffffffffffffffffffffffffffffffffffff1673ffffffffffffffffffffffffffffffffffffffff16815260200190815260200160002060006101000a81548160ff0219169083151502179055508173ffffffffffffffffffffffffffffffffffffffff168373ffffffffffffffffffffffffffffffffffffffff167f17307eab39ab6107e8899845ad3d59bd9653f200f220920489ca2b5937696c318360405161135591906123b5565b60405180910390a3505050565b61136d848484610d7c565b61137984848484611689565b6113b8576040517f08c379a00000000000000000000000000000000000000000000000000000000081526004016113af9061311f565b60405180910390fd5b50505050565b60606113c982610bdb565b6000600a600084815260200190815260200160002080546113e9906129e7565b80601f0160208091040260200160405190810160405280929190818152602001828054611415906129e7565b80156114625780601f1061143757610100808354040283529160200191611462565b820191906000526020600020905b81548152906001019060200180831161144557829003601f168201915b505050505090506000611473611810565b905060008151036114885781925050506114cb565b6000825111156114bd5780826040516020016114a592919061317b565b604051602081830303815290604052925050506114cb565b6114c684611827565b925050505b919050565b600081600001549050919050565b6001816000016000828254019250508190555050565b61150e82826040518060200160405280600081525061188f565b5050565b61151b82611630565b61155a576040517f08c379a000000000000000000000000000000000000000000000000000000000815260040161155190613211565b60405180910390fd5b80600a6000848152602001908152602001600020908161157a91906133dd565b507ff8e1a15aba9398e019f0b49df1a4fde98ee17ae345cb5f6b5e2c27f5033e8ce7826040516115aa91906125bc565b60405180910390a15050565b60007f780e9d63000000000000000000000000000000000000000000000000000000007bffffffffffffffffffffffffffffffffffffffffffffffffffffffff1916827bffffffffffffffffffffffffffffffffffffffffffffffffffffffff191614806116295750611628826118ea565b5b9050919050565b60008073ffffffffffffffffffffffffffffffffffffffff1661165283611075565b73ffffffffffffffffffffffffffffffffffffffff1614159050919050565b61167d848484846119cc565b50505050565b50505050565b60006116aa8473ffffffffffffffffffffffffffffffffffffffff16611b2a565b15611803578373ffffffffffffffffffffffffffffffffffffffff1663150b7a026116d3610c26565b8786866040518563ffffffff1660e01b81526004016116f59493929190613504565b6020604051808303816000875af192505050801561173157506040513d601f19601f8201168201806040525081019061172e9190613565565b60015b6117b3573d8060008114611761576040519150601f19603f3d011682016040523d82523d6000602084013e611766565b606091505b5060008151036117ab576040517f08c379a00000000000000000000000000000000000000000000000000000000081526004016117a29061311f565b60405180910390fd5b805181602001fd5b63150b7a0260e01b7bffffffffffffffffffffffffffffffffffffffffffffffffffffffff1916817bffffffffffffffffffffffffffffffffffffffffffffffffffffffff191614915050611808565b600190505b949350505050565b606060405180602001604052806000815250905090565b606061183282610bdb565b600061183c611810565b9050600081511161185c5760405180602001604052806000815250611887565b8061186684611b4d565b60405160200161187792919061317b565b6040516020818303038152906040525b915050919050565b6118998383611c1b565b6118a66000848484611689565b6118e5576040517f08c379a00000000000000000000000000000000000000000000000000000000081526004016118dc9061311f565b60405180910390fd5b505050565b60007f80ac58cd000000000000000000000000000000000000000000000000000000007bffffffffffffffffffffffffffffffffffffffffffffffffffffffff1916827bffffffffffffffffffffffffffffffffffffffffffffffffffffffff191614806119b557507f5b5e139f000000000000000000000000000000000000000000000000000000007bffffffffffffffffffffffffffffffffffffffffffffffffffffffff1916827bffffffffffffffffffffffffffffffffffffffffffffffffffffffff1916145b806119c557506119c482611e38565b5b9050919050565b6119d884848484611ea2565b6001811115611a1c576040517f08c379a0000000000000000000000000000000000000000000000000000000008152600401611a1390613604565b60405180910390fd5b6000829050600073ffffffffffffffffffffffffffffffffffffffff168573ffffffffffffffffffffffffffffffffffffffff1603611a6357611a5e81611ea8565b611aa2565b8373ffffffffffffffffffffffffffffffffffffffff168573ffffffffffffffffffffffffffffffffffffffff1614611aa157611aa08582611ef1565b5b5b600073ffffffffffffffffffffffffffffffffffffffff168473ffffffffffffffffffffffffffffffffffffffff1603611ae457611adf8161205e565b611b23565b8473ffffffffffffffffffffffffffffffffffffffff168473ffffffffffffffffffffffffffffffffffffffff1614611b2257611b21848261212f565b5b5b5050505050565b6000808273ffffffffffffffffffffffffffffffffffffffff163b119050919050565b606060006001611b5c846121ae565b01905060008167ffffffffffffffff811115611b7b57611b7a6126cd565b5b6040519080825280601f01601f191660200182016040528015611bad5781602001600182028036833780820191505090505b509050600082602001820190505b600115611c10578080600190039150507f3031323334353637383961626364656600000000000000000000000000000000600a86061a8153600a8581611c0457611c03613624565b5b04945060008503611bbb575b819350505050919050565b600073ffffffffffffffffffffffffffffffffffffffff168273ffffffffffffffffffffffffffffffffffffffff1603611c8a576040517f08c379a0000000000000000000000000000000000000000000000000000000008152600401611c819061369f565b60405180910390fd5b611c9381611630565b15611cd3576040517f08c379a0000000000000000000000000000000000000000000000000000000008152600401611cca9061370b565b60405180910390fd5b611ce1600083836001611671565b611cea81611630565b15611d2a576040517f08c379a0000000000000000000000000000000000000000000000000000000008152600401611d219061370b565b60405180910390fd5b6001600360008473ffffffffffffffffffffffffffffffffffffffff1673ffffffffffffffffffffffffffffffffffffffff16815260200190815260200160002060008282540192505081905550816002600083815260200190815260200160002060006101000a81548173ffffffffffffffffffffffffffffffffffffffff021916908373ffffffffffffffffffffffffffffffffffffffff160217905550808273ffffffffffffffffffffffffffffffffffffffff16600073ffffffffffffffffffffffffffffffffffffffff167fddf252ad1be2c89b69c2b068fc378daa952ba7f163c4a11628f55a4df523b3ef60405160405180910390a4611e34600083836001611683565b5050565b60007f01ffc9a7000000000000000000000000000000000000000000000000000000007bffffffffffffffffffffffffffffffffffffffffffffffffffffffff1916827bffffffffffffffffffffffffffffffffffffffffffffffffffffffff1916149050919050565b50505050565b6008805490506009600083815260200190815260200160002081905550600881908060018154018082558091505060019003906000526020600020016000909190919091505550565b60006001611efe84610821565b611f08919061375a565b9050600060076000848152602001908152602001600020549050818114611fed576000600660008673ffffffffffffffffffffffffffffffffffffffff1673ffffffffffffffffffffffffffffffffffffffff168152602001908152602001600020600084815260200190815260200160002054905080600660008773ffffffffffffffffffffffffffffffffffffffff1673ffffffffffffffffffffffffffffffffffffffff168152602001908152602001600020600084815260200190815260200160002081905550816007600083815260200190815260200160002081905550505b6007600084815260200190815260200160002060009055600660008573ffffffffffffffffffffffffffffffffffffffff1673ffffffffffffffffffffffffffffffffffffffff16815260200190815260200160002060008381526020019081526020016000206000905550505050565b60006001600880549050612072919061375a565b90506000600960008481526020019081526020016000205490506000600883815481106120a2576120a1612cf2565b5b9060005260206000200154905080600883815481106120c4576120c3612cf2565b5b9060005260206000200181905550816009600083815260200190815260200160002081905550600960008581526020019081526020016000206000905560088054806121135761211261378e565b5b6001900381819060005260206000200160009055905550505050565b600061213a83610821565b905081600660008573ffffffffffffffffffffffffffffffffffffffff1673ffffffffffffffffffffffffffffffffffffffff168152602001908152602001600020600083815260200190815260200160002081905550806007600084815260200190815260200160002081905550505050565b600080600090507a184f03e93ff9f4daa797ed6e38ed64bf6a1f010000000000000000831061220c577a184f03e93ff9f4daa797ed6e38ed64bf6a1f010000000000000000838161220257612201613624565b5b0492506040810190505b6d04ee2d6d415b85acef81000000008310612249576d04ee2d6d415b85acef8100000000838161223f5761223e613624565b5b0492506020810190505b662386f26fc10000831061227857662386f26fc10000838161226e5761226d613624565b5b0492506010810190505b6305f5e10083106122a1576305f5e100838161229757612296613624565b5b0492506008810190505b61271083106122c65761271083816122bc576122bb613624565b5b0492506004810190505b606483106122e957606483816122df576122de613624565b5b0492506002810190505b600a83106122f8576001810190505b80915050919050565b6000604051905090565b600080fd5b600080fd5b60007fffffffff0000000000000000000000000000000000000000000000000000000082169050919050565b61234a81612315565b811461235557600080fd5b50565b60008135905061236781612341565b92915050565b6000602082840312156123835761238261230b565b5b600061239184828501612358565b91505092915050565b60008115159050919050565b6123af8161239a565b82525050565b60006020820190506123ca60008301846123a6565b92915050565b600081519050919050565b600082825260208201905092915050565b60005b8381101561240a5780820151818401526020810190506123ef565b60008484015250505050565b6000601f19601f8301169050919050565b6000612432826123d0565b61243c81856123db565b935061244c8185602086016123ec565b61245581612416565b840191505092915050565b6000602082019050818103600083015261247a8184612427565b905092915050565b6000819050919050565b61249581612482565b81146124a057600080fd5b50565b6000813590506124b28161248c565b92915050565b6000602082840312156124ce576124cd61230b565b5b60006124dc848285016124a3565b91505092915050565b600073ffffffffffffffffffffffffffffffffffffffff82169050919050565b6000612510826124e5565b9050919050565b61252081612505565b82525050565b600060208201905061253b6000830184612517565b92915050565b61254a81612505565b811461255557600080fd5b50565b60008135905061256781612541565b92915050565b600080604083850312156125845761258361230b565b5b600061259285828601612558565b92505060206125a3858286016124a3565b9150509250929050565b6125b681612482565b82525050565b60006020820190506125d160008301846125ad565b92915050565b6000806000606084860312156125f0576125ef61230b565b5b60006125fe86828701612558565b935050602061260f86828701612558565b9250506040612620868287016124a3565b9150509250925092565b6000602082840312156126405761263f61230b565b5b600061264e84828501612558565b91505092915050565b6126608161239a565b811461266b57600080fd5b50565b60008135905061267d81612657565b92915050565b6000806040838503121561269a5761269961230b565b5b60006126a885828601612558565b92505060206126b98582860161266e565b9150509250929050565b600080fd5b600080fd5b7f4e487b7100000000000000000000000000000000000000000000000000000000600052604160045260246000fd5b61270582612416565b810181811067ffffffffffffffff82111715612724576127236126cd565b5b80604052505050565b6000612737612301565b905061274382826126fc565b919050565b600067ffffffffffffffff821115612763576127626126cd565b5b61276c82612416565b9050602081019050919050565b82818337600083830152505050565b600061279b61279684612748565b61272d565b9050828152602081018484840111156127b7576127b66126c8565b5b6127c2848285612779565b509392505050565b600082601f8301126127df576127de6126c3565b5b81356127ef848260208601612788565b91505092915050565b600080600080608085870312156128125761281161230b565b5b600061282087828801612558565b945050602061283187828801612558565b9350506040612842878288016124a3565b925050606085013567ffffffffffffffff81111561286357612862612310565b5b61286f878288016127ca565b91505092959194509250565b600067ffffffffffffffff821115612896576128956126cd565b5b61289f82612416565b9050602081019050919050565b60006128bf6128ba8461287b565b61272d565b9050828152602081018484840111156128db576128da6126c8565b5b6128e6848285612779565b509392505050565b600082601f830112612903576129026126c3565b5b81356129138482602086016128ac565b91505092915050565b600080604083850312156129335761293261230b565b5b600061294185828601612558565b925050602083013567ffffffffffffffff81111561296257612961612310565b5b61296e858286016128ee565b9150509250929050565b6000806040838503121561298f5761298e61230b565b5b600061299d85828601612558565b92505060206129ae85828601612558565b9150509250929050565b7f4e487b7100000000000000000000000000000000000000000000000000000000600052602260045260246000fd5b600060028204905060018216806129ff57607f821691505b602082108103612a1257612a116129b8565b5b50919050565b7f4552433732313a20617070726f76616c20746f2063757272656e74206f776e6560008201527f7200000000000000000000000000000000000000000000000000000000000000602082015250565b6000612a746021836123db565b9150612a7f82612a18565b604082019050919050565b60006020820190508181036000830152612aa381612a67565b9050919050565b7f4552433732313a20617070726f76652063616c6c6572206973206e6f7420746f60008201527f6b656e206f776e6572206f7220617070726f76656420666f7220616c6c000000602082015250565b6000612b06603d836123db565b9150612b1182612aaa565b604082019050919050565b60006020820190508181036000830152612b3581612af9565b9050919050565b7f4552433732313a2063616c6c6572206973206e6f7420746f6b656e206f776e6560008201527f72206f7220617070726f76656400000000000000000000000000000000000000602082015250565b6000612b98602d836123db565b9150612ba382612b3c565b604082019050919050565b60006020820190508181036000830152612bc781612b8b565b9050919050565b7f455243373231456e756d657261626c653a206f776e657220696e646578206f7560008201527f74206f6620626f756e6473000000000000000000000000000000000000000000602082015250565b6000612c2a602b836123db565b9150612c3582612bce565b604082019050919050565b60006020820190508181036000830152612c5981612c1d565b9050919050565b7f455243373231456e756d657261626c653a20676c6f62616c20696e646578206f60008201527f7574206f6620626f756e64730000000000000000000000000000000000000000602082015250565b6000612cbc602c836123db565b9150612cc782612c60565b604082019050919050565b60006020820190508181036000830152612ceb81612caf565b9050919050565b7f4e487b7100000000000000000000000000000000000000000000000000000000600052603260045260246000fd5b7f4552433732313a20696e76616c696420746f6b656e2049440000000000000000600082015250565b6000612d576018836123db565b9150612d6282612d21565b602082019050919050565b60006020820190508181036000830152612d8681612d4a565b9050919050565b7f4552433732313a2061646472657373207a65726f206973206e6f74206120766160008201527f6c6964206f776e65720000000000000000000000000000000000000000000000602082015250565b6000612de96029836123db565b9150612df482612d8d565b604082019050919050565b60006020820190508181036000830152612e1881612ddc565b9050919050565b7f4f776e61626c653a206e6577206f776e657220697320746865207a65726f206160008201527f6464726573730000000000000000000000000000000000000000000000000000602082015250565b6000612e7b6026836123db565b9150612e8682612e1f565b604082019050919050565b60006020820190508181036000830152612eaa81612e6e565b9050919050565b7f4552433732313a207472616e736665722066726f6d20696e636f72726563742060008201527f6f776e6572000000000000000000000000000000000000000000000000000000602082015250565b6000612f0d6025836123db565b9150612f1882612eb1565b604082019050919050565b60006020820190508181036000830152612f3c81612f00565b9050919050565b7f4552433732313a207472616e7366657220746f20746865207a65726f2061646460008201527f7265737300000000000000000000000000000000000000000000000000000000602082015250565b6000612f9f6024836123db565b9150612faa82612f43565b604082019050919050565b60006020820190508181036000830152612fce81612f92565b9050919050565b7f4f776e61626c653a2063616c6c6572206973206e6f7420746865206f776e6572600082015250565b600061300b6020836123db565b915061301682612fd5565b602082019050919050565b6000602082019050818103600083015261303a81612ffe565b9050919050565b7f4552433732313a20617070726f766520746f2063616c6c657200000000000000600082015250565b60006130776019836123db565b915061308282613041565b602082019050919050565b600060208201905081810360008301526130a68161306a565b9050919050565b7f4552433732313a207472616e7366657220746f206e6f6e20455243373231526560008201527f63656976657220696d706c656d656e7465720000000000000000000000000000602082015250565b60006131096032836123db565b9150613114826130ad565b604082019050919050565b60006020820190508181036000830152613138816130fc565b9050919050565b600081905092915050565b6000613155826123d0565b61315f818561313f565b935061316f8185602086016123ec565b80840191505092915050565b6000613187828561314a565b9150613193828461314a565b91508190509392505050565b7f45524337323155524953746f726167653a2055524920736574206f66206e6f6e60008201527f6578697374656e7420746f6b656e000000000000000000000000000000000000602082015250565b60006131fb602e836123db565b91506132068261319f565b604082019050919050565b6000602082019050818103600083015261322a816131ee565b9050919050565b60008190508160005260206000209050919050565b60006020601f8301049050919050565b600082821b905092915050565b6000600883026132937fffffffffffffffffffffffffffffffffffffffffffffffffffffffffffffffff82613256565b61329d8683613256565b95508019841693508086168417925050509392505050565b6000819050919050565b60006132da6132d56132d084612482565b6132b5565b612482565b9050919050565b6000819050919050565b6132f4836132bf565b613308613300826132e1565b848454613263565b825550505050565b600090565b61331d613310565b6133288184846132eb565b505050565b5b8181101561334c57613341600082613315565b60018101905061332e565b5050565b601f8211156133915761336281613231565b61336b84613246565b8101602085101561337a578190505b61338e61338685613246565b83018261332d565b50505b505050565b600082821c905092915050565b60006133b460001984600802613396565b1980831691505092915050565b60006133cd83836133a3565b9150826002028217905092915050565b6133e6826123d0565b67ffffffffffffffff8111156133ff576133fe6126cd565b5b61340982546129e7565b613414828285613350565b600060209050601f8311600181146134475760008415613435578287015190505b61343f85826133c1565b8655506134a7565b601f19841661345586613231565b60005b8281101561347d57848901518255600182019150602085019450602081019050613458565b8683101561349a5784890151613496601f8916826133a3565b8355505b6001600288020188555050505b505050505050565b600081519050919050565b600082825260208201905092915050565b60006134d6826134af565b6134e081856134ba565b93506134f08185602086016123ec565b6134f981612416565b840191505092915050565b60006080820190506135196000830187612517565b6135266020830186612517565b61353360408301856125ad565b818103606083015261354581846134cb565b905095945050505050565b60008151905061355f81612341565b92915050565b60006020828403121561357b5761357a61230b565b5b600061358984828501613550565b91505092915050565b7f455243373231456e756d657261626c653a20636f6e736563757469766520747260008201527f616e7366657273206e6f7420737570706f727465640000000000000000000000602082015250565b60006135ee6035836123db565b91506135f982613592565b604082019050919050565b6000602082019050818103600083015261361d816135e1565b9050919050565b7f4e487b7100000000000000000000000000000000000000000000000000000000600052601260045260246000fd5b7f4552433732313a206d696e7420746f20746865207a65726f2061646472657373600082015250565b60006136896020836123db565b915061369482613653565b602082019050919050565b600060208201905081810360008301526136b88161367c565b9050919050565b7f4552433732313a20746f6b656e20616c7265616479206d696e74656400000000600082015250565b60006136f5601c836123db565b9150613700826136bf565b602082019050919050565b60006020820190508181036000830152613724816136e8565b9050919050565b7f4e487b7100000000000000000000000000000000000000000000000000000000600052601160045260246000fd5b600061376582612482565b915061377083612482565b92508282039050818111156137885761378761372b565b5b92915050565b7f4e487b7100000000000000000000000000000000000000000000000000000000600052603160045260246000fdfea264697066735822122066a3addbb1fc790fb0f6f1e64482aba7207ea017d0092c9d02c2d52c1fa8233a64736f6c63430008120033",
  "linkReferences": {},
  "deployedLinkReferences": {}
}