{
  "_format": "hh-sol-artifact-1",
  "contractName": "BruhBear",
  "sourceName": "contracts/BruhBear.sol",
  "abi": [
    {
      "inputs": [],
      "stateMutability": "nonpayable",
      "type": "constructor"
    },
    {
      "anonymous": false,
      "inputs": [
        {
          "indexed": true,
          "internalType": "address",
          "name": "owner",
          "type": "address"
        },
        {
          "indexed": true,
          "internalType": "address",
          "name": "approved",
          "type": "address"
        },
        {
          "indexed": true,
          "internalType": "uint256",
          "name": "tokenId",
          "type": "uint256"
        }
      ],
      "name": "Approval",
      "type": "event"
    },
    {
      "anonymous": false,
      "inputs": [
        {
          "indexed": true,
          "internalType": "address",
          "name": "owner",
          "type": "address"
        },
        {
          "indexed": true,
          "internalType": "address",
          "name": "operator",
          "type": "address"
        },
        {
          "indexed": false,
          "internalType": "bool",
          "name": "approved",
          "type": "bool"
        }
      ],
      "name": "ApprovalForAll",
      "type": "event"
    },
    {
      "anonymous": false,
      "inputs": [
        {
          "indexed": false,
          "internalType": "uint256",
          "name": "_fromTokenId",
          "type": "uint256"
        },
        {
          "indexed": false,
          "internalType": "uint256",
          "name": "_toTokenId",
          "type": "uint256"
        }
      ],
      "name": "BatchMetadataUpdate",
      "type": "event"
    },
    {
      "anonymous": false,
      "inputs": [
        {
          "indexed": false,
          "internalType": "uint256",
          "name": "_tokenId",
          "type": "uint256"
        }
      ],
      "name": "MetadataUpdate",
      "type": "event"
    },
    {
      "anonymous": false,
      "inputs": [
        {
          "indexed": true,
          "internalType": "address",
          "name": "previousOwner",
          "type": "address"
        },
        {
          "indexed": true,
          "internalType": "address",
          "name": "newOwner",
          "type": "address"
        }
      ],
      "name": "OwnershipTransferred",
      "type": "event"
    },
    {
      "anonymous": false,
      "inputs": [
        {
          "indexed": true,
          "internalType": "address",
          "name": "from",
          "type": "address"
        },
        {
          "indexed": true,
          "internalType": "address",
          "name": "to",
          "type": "address"
        },
        {
          "indexed": true,
          "internalType": "uint256",
          "name": "tokenId",
          "type": "uint256"
        }
      ],
      "name": "Transfer",
      "type": "event"
    },
    {
      "inputs": [
        {
          "internalType": "address",
          "name": "to",
          "type": "address"
        },
        {
          "internalType": "uint256",
          "name": "tokenId",
          "type": "uint256"
        }
      ],
      "name": "approve",
      "outputs": [],
      "stateMutability": "nonpayable",
      "type": "function"
    },
    {
      "inputs": [
        {
          "internalType": "address",
          "name": "owner",
          "type": "address"
        }
      ],
      "name": "balanceOf",
      "outputs": [
        {
          "internalType": "uint256",
          "name": "",
          "type": "uint256"
        }
      ],
      "stateMutability": "view",
      "type": "function"
    },
    {
      "inputs": [
        {
          "internalType": "uint256",
          "name": "tokenId",
          "type": "uint256"
        }
      ],
      "name": "getApproved",
      "outputs": [
        {
          "internalType": "address",
          "name": "",
          "type": "address"
        }
      ],
      "stateMutability": "view",
      "type": "function"
    },
    {
      "inputs": [],
      "name": "getTokenId",
      "outputs": [
        {
          "internalType": "uint256",
          "name": "",
          "type": "uint256"
        }
      ],
      "stateMutability": "view",
      "type": "function"
    },
    {
      "inputs": [
        {
          "internalType": "address",
          "name": "owner",
          "type": "address"
        },
        {
          "internalType": "address",
          "name": "operator",
          "type": "address"
        }
      ],
      "name": "isApprovedForAll",
      "outputs": [
        {
          "internalType": "bool",
          "name": "",
          "type": "bool"
        }
      ],
      "stateMutability": "view",
      "type": "function"
    },
    {
      "inputs": [],
      "name": "name",
      "outputs": [
        {
          "internalType": "string",
          "name": "",
          "type": "string"
        }
      ],
      "stateMutability": "view",
      "type": "function"
    },
    {
      "inputs": [],
      "name": "owner",
      "outputs": [
        {
          "internalType": "address",
          "name": "",
          "type": "address"
        }
      ],
      "stateMutability": "view",
      "type": "function"
    },
    {
      "inputs": [
        {
          "internalType": "uint256",
          "name": "tokenId",
          "type": "uint256"
        }
      ],
      "name": "ownerOf",
      "outputs": [
        {
          "internalType": "address",
          "name": "",
          "type": "address"
        }
      ],
      "stateMutability": "view",
      "type": "function"
    },
    {
      "inputs": [],
      "name": "renounceOwnership",
      "outputs": [],
      "stateMutability": "nonpayable",
      "type": "function"
    },
    {
      "inputs": [
        {
          "internalType": "address",
          "name": "to",
          "type": "address"
        },
        {
          "internalType": "string",
          "name": "uri",
          "type": "string"
        }
      ],
      "name": "safeMint",
      "outputs": [],
      "stateMutability": "nonpayable",
      "type": "function"
    },
    {
      "inputs": [
        {
          "internalType": "address",
          "name": "from",
          "type": "address"
        },
        {
          "internalType": "address",
          "name": "to",
          "type": "address"
        },
        {
          "internalType": "uint256",
          "name": "tokenId",
          "type": "uint256"
        }
      ],
      "name": "safeTransferFrom",
      "outputs": [],
      "stateMutability": "nonpayable",
      "type": "function"
    },
    {
      "inputs": [
        {
          "internalType": "address",
          "name": "from",
          "type": "address"
        },
        {
          "internalType": "address",
          "name": "to",
          "type": "address"
        },
        {
          "internalType": "uint256",
          "name": "tokenId",
          "type": "uint256"
        },
        {
          "internalType": "bytes",
          "name": "data",
          "type": "bytes"
        }
      ],
      "name": "safeTransferFrom",
      "outputs": [],
      "stateMutability": "nonpayable",
      "type": "function"
    },
    {
      "inputs": [
        {
          "internalType": "address",
          "name": "operator",
          "type": "address"
        },
        {
          "internalType": "bool",
          "name": "approved",
          "type": "bool"
        }
      ],
      "name": "setApprovalForAll",
      "outputs": [],
      "stateMutability": "nonpayable",
      "type": "function"
    },
    {
      "inputs": [
        {
          "internalType": "bytes4",
          "name": "interfaceId",
          "type": "bytes4"
        }
      ],
      "name": "supportsInterface",
      "outputs": [
        {
          "internalType": "bool",
          "name": "",
          "type": "bool"
        }
      ],
      "stateMutability": "view",
      "type": "function"
    },
    {
      "inputs": [],
      "name": "symbol",
      "outputs": [
        {
          "internalType": "string",
          "name": "",
          "type": "string"
        }
      ],
      "stateMutability": "view",
      "type": "function"
    },
    {
      "inputs": [
        {
          "internalType": "uint256",
          "name": "index",
          "type": "uint256"
        }
      ],
      "name": "tokenByIndex",
      "outputs": [
        {
          "internalType": "uint256",
          "name": "",
          "type": "uint256"
        }
      ],
      "stateMutability": "view",
      "type": "function"
    },
    {
      "inputs": [
        {
          "internalType": "address",
          "name": "owner",
          "type": "address"
        },
        {
          "internalType": "uint256",
          "name": "index",
          "type": "uint256"
        }
      ],
      "name": "tokenOfOwnerByIndex",
      "outputs": [
        {
          "internalType": "uint256",
          "name": "",
          "type": "uint256"
        }
      ],
      "stateMutability": "view",
      "type": "function"
    },
    {
      "inputs": [
        {
          "internalType": "uint256",
          "name": "tokenId",
          "type": "uint256"
        }
      ],
      "name": "tokenURI",
      "outputs": [
        {
          "internalType": "string",
          "name": "",
          "type": "string"
        }
      ],
      "stateMutability": "view",
      "type": "function"
    },
    {
      "inputs": [],
      "name": "totalSupply",
      "outputs": [
        {
          "internalType": "uint256",
          "name": "",
          "type": "uint256"
        }
      ],
      "stateMutability": "view",
      "type": "function"
    },
    {
      "inputs": [
        {
          "internalType": "address",
          "name": "from",
          "type": "address"
        },
        {
          "internalType": "address",
          "name": "to",
          "type": "address"
        },
        {
          "internalType": "uint256",
          "name": "tokenId",
          "type": "uint256"
        }
      ],
      "name": "transferFrom",
      "outputs": [],
      "stateMutability": "nonpayable",
      "type": "function"
    },
    {
      "inputs": [
        {
          "internalType": "address",
          "name": "newOwner",
          "type": "address"
        }
      ],
      "name": "transferOwnership",
      "outputs": [],
      "stateMutability": "nonpayable",
      "type": "function"
    }
  ],
  "bytecode": "0x60806040523480156200001157600080fd5b506040518060400160405280600781526020017f487579204e4654000000000000000000000000000000000000000000000000008152506040518060400160405280600381526020017f484e54000000000000000000000000000000000000000000000000000000000081525081600090816200008f919062000412565b508060019081620000a1919062000412565b505050620000c4620000b8620000ca60201b60201c565b620000d260201b60201c565b620004f9565b600033905090565b6000600b60009054906101000a900473ffffffffffffffffffffffffffffffffffffffff16905081600b60006101000a81548173ffffffffffffffffffffffffffffffffffffffff021916908373ffffffffffffffffffffffffffffffffffffffff1602179055508173ffffffffffffffffffffffffffffffffffffffff168173ffffffffffffffffffffffffffffffffffffffff167f8be0079c531659141344cd1fd0a4f28419497f9722a3daafe3b4186f6b6457e060405160405180910390a35050565b600081519050919050565b7f4e487b7100000000000000000000000000000000000000000000000000000000600052604160045260246000fd5b7f4e487b7100000000000000000000000000000000000000000000000000000000600052602260045260246000fd5b600060028204905060018216806200021a57607f821691505b60208210810362000230576200022f620001d2565b5b50919050565b60008190508160005260206000209050919050565b60006020601f8301049050919050565b600082821b905092915050565b6000600883026200029a7fffffffffffffffffffffffffffffffffffffffffffffffffffffffffffffffff826200025b565b620002a686836200025b565b95508019841693508086168417925050509392505050565b6000819050919050565b6000819050919050565b6000620002f3620002ed620002e784620002be565b620002c8565b620002be565b9050919050565b6000819050919050565b6200030f83620002d2565b620003276200031e82620002fa565b84845462000268565b825550505050565b600090565b6200033e6200032f565b6200034b81848462000304565b505050565b5b8181101562000373576200036760008262000334565b60018101905062000351565b5050565b601f821115620003c2576200038c8162000236565b62000397846200024b565b81016020851015620003a7578190505b620003bf620003b6856200024b565b83018262000350565b50505b505050565b600082821c905092915050565b6000620003e760001984600802620003c7565b1980831691505092915050565b6000620004028383620003d4565b9150826002028217905092915050565b6200041d8262000198565b67ffffffffffffffff811115620004395762000438620001a3565b5b62000445825462000201565b6200045282828562000377565b600060209050601f8311600181146200048a576000841562000475578287015190505b620004818582620003f4565b865550620004f1565b601f1984166200049a8662000236565b60005b82811015620004c4578489015182556001820191506020850194506020810190506200049d565b86831015620004e45784890151620004e0601f891682620003d4565b8355505b6001600288020188555050505b505050505050565b61382d80620005096000396000f3fe608060405234801561001057600080fd5b50600436106101375760003560e01c80636352211e116100b8578063a22cb4651161007c578063a22cb46514610350578063b88d4fde1461036c578063c87b56dd14610388578063d204c45e146103b8578063e985e9c5146103d4578063f2fde38b1461040457610137565b80636352211e146102aa57806370a08231146102da578063715018a61461030a5780638da5cb5b1461031457806395d89b411461033257610137565b806318160ddd116100ff57806318160ddd146101f457806323b872dd146102125780632f745c591461022e57806342842e0e1461025e5780634f6ccce71461027a57610137565b8063010a38f51461013c57806301ffc9a71461015a57806306fdde031461018a578063081812fc146101a8578063095ea7b3146101d8575b600080fd5b610144610420565b6040516101519190612354565b60405180910390f35b610174600480360381019061016f91906123db565b610431565b6040516101819190612423565b60405180910390f35b610192610443565b60405161019f91906124ce565b60405180910390f35b6101c260048036038101906101bd919061251c565b6104d5565b6040516101cf919061258a565b60405180910390f35b6101f260048036038101906101ed91906125d1565b61051b565b005b6101fc610632565b6040516102099190612354565b60405180910390f35b61022c60048036038101906102279190612611565b61063f565b005b610248600480360381019061024391906125d1565b61069f565b6040516102559190612354565b60405180910390f35b61027860048036038101906102739190612611565b610744565b005b610294600480360381019061028f919061251c565b610764565b6040516102a19190612354565b60405180910390f35b6102c460048036038101906102bf919061251c565b6107d5565b6040516102d1919061258a565b60405180910390f35b6102f460048036038101906102ef9190612664565b61085b565b6040516103019190612354565b60405180910390f35b610312610912565b005b61031c610926565b604051610329919061258a565b60405180910390f35b61033a610950565b60405161034791906124ce565b60405180910390f35b61036a600480360381019061036591906126bd565b6109e2565b005b61038660048036038101906103819190612832565b6109f8565b005b6103a2600480360381019061039d919061251c565b610a5a565b6040516103af91906124ce565b60405180910390f35b6103d260048036038101906103cd9190612956565b610a6c565b005b6103ee60048036038101906103e991906129b2565b610a9d565b6040516103fb9190612423565b60405180910390f35b61041e60048036038101906104199190612664565b610b31565b005b600061042c600c610bb4565b905090565b600061043c82610bc2565b9050919050565b60606000805461045290612a21565b80601f016020809104026020016040519081016040528092919081815260200182805461047e90612a21565b80156104cb5780601f106104a0576101008083540402835291602001916104cb565b820191906000526020600020905b8154815290600101906020018083116104ae57829003601f168201915b5050505050905090565b60006104e082610c23565b6004600083815260200190815260200160002060009054906101000a900473ffffffffffffffffffffffffffffffffffffffff169050919050565b6000610526826107d5565b90508073ffffffffffffffffffffffffffffffffffffffff168373ffffffffffffffffffffffffffffffffffffffff1603610596576040517f08c379a000000000000000000000000000000000000000000000000000000000815260040161058d90612ac4565b60405180910390fd5b8073ffffffffffffffffffffffffffffffffffffffff166105b5610c6e565b73ffffffffffffffffffffffffffffffffffffffff1614806105e457506105e3816105de610c6e565b610a9d565b5b610623576040517f08c379a000000000000000000000000000000000000000000000000000000000815260040161061a90612b56565b60405180910390fd5b61062d8383610c76565b505050565b6000600880549050905090565b61065061064a610c6e565b82610d2f565b61068f576040517f08c379a000000000000000000000000000000000000000000000000000000000815260040161068690612be8565b60405180910390fd5b61069a838383610dc4565b505050565b60006106aa8361085b565b82106106eb576040517f08c379a00000000000000000000000000000000000000000000000000000000081526004016106e290612c7a565b60405180910390fd5b600660008473ffffffffffffffffffffffffffffffffffffffff1673ffffffffffffffffffffffffffffffffffffffff168152602001908152602001600020600083815260200190815260200160002054905092915050565b61075f838383604051806020016040528060008152506109f8565b505050565b600061076e610632565b82106107af576040517f08c379a00000000000000000000000000000000000000000000000000000000081526004016107a690612d0c565b60405180910390fd5b600882815481106107c3576107c2612d2c565b5b90600052602060002001549050919050565b6000806107e1836110bd565b9050600073ffffffffffffffffffffffffffffffffffffffff168173ffffffffffffffffffffffffffffffffffffffff1603610852576040517f08c379a000000000000000000000000000000000000000000000000000000000815260040161084990612da7565b60405180910390fd5b80915050919050565b60008073ffffffffffffffffffffffffffffffffffffffff168273ffffffffffffffffffffffffffffffffffffffff16036108cb576040517f08c379a00000000000000000000000000000000000000000000000000000000081526004016108c290612e39565b60405180910390fd5b600360008373ffffffffffffffffffffffffffffffffffffffff1673ffffffffffffffffffffffffffffffffffffffff168152602001908152602001600020549050919050565b61091a6110fa565b6109246000611178565b565b6000600b60009054906101000a900473ffffffffffffffffffffffffffffffffffffffff16905090565b60606001805461095f90612a21565b80601f016020809104026020016040519081016040528092919081815260200182805461098b90612a21565b80156109d85780601f106109ad576101008083540402835291602001916109d8565b820191906000526020600020905b8154815290600101906020018083116109bb57829003601f168201915b5050505050905090565b6109f46109ed610c6e565b838361123e565b5050565b610a09610a03610c6e565b83610d2f565b610a48576040517f08c379a0000000000000000000000000000000000000000000000000000000008152600401610a3f90612be8565b60405180910390fd5b610a54848484846113aa565b50505050565b6060610a6582611406565b9050919050565b6000610a78600c610bb4565b9050610a84600c611518565b610a8e838261152e565b610a98818361154c565b505050565b6000600560008473ffffffffffffffffffffffffffffffffffffffff1673ffffffffffffffffffffffffffffffffffffffff16815260200190815260200160002060008373ffffffffffffffffffffffffffffffffffffffff1673ffffffffffffffffffffffffffffffffffffffff16815260200190815260200160002060009054906101000a900460ff16905092915050565b610b396110fa565b600073ffffffffffffffffffffffffffffffffffffffff168173ffffffffffffffffffffffffffffffffffffffff1603610ba8576040517f08c379a0000000000000000000000000000000000000000000000000000000008152600401610b9f90612ecb565b60405180910390fd5b610bb181611178565b50565b600081600001549050919050565b6000634906490660e01b7bffffffffffffffffffffffffffffffffffffffffffffffffffffffff1916827bffffffffffffffffffffffffffffffffffffffffffffffffffffffff19161480610c1c5750610c1b826115f0565b5b9050919050565b610c2c8161166a565b610c6b576040517f08c379a0000000000000000000000000000000000000000000000000000000008152600401610c6290612da7565b60405180910390fd5b50565b600033905090565b816004600083815260200190815260200160002060006101000a81548173ffffffffffffffffffffffffffffffffffffffff021916908373ffffffffffffffffffffffffffffffffffffffff160217905550808273ffffffffffffffffffffffffffffffffffffffff16610ce9836107d5565b73ffffffffffffffffffffffffffffffffffffffff167f8c5be1e5ebec7d5bd14f71427d1e84f3dd0314c0f7b2291e5b200ac8c7c3b92560405160405180910390a45050565b600080610d3b836107d5565b90508073ffffffffffffffffffffffffffffffffffffffff168473ffffffffffffffffffffffffffffffffffffffff161480610d7d5750610d7c8185610a9d565b5b80610dbb57508373ffffffffffffffffffffffffffffffffffffffff16610da3846104d5565b73ffffffffffffffffffffffffffffffffffffffff16145b91505092915050565b8273ffffffffffffffffffffffffffffffffffffffff16610de4826107d5565b73ffffffffffffffffffffffffffffffffffffffff1614610e3a576040517f08c379a0000000000000000000000000000000000000000000000000000000008152600401610e3190612f5d565b60405180910390fd5b600073ffffffffffffffffffffffffffffffffffffffff168273ffffffffffffffffffffffffffffffffffffffff1603610ea9576040517f08c379a0000000000000000000000000000000000000000000000000000000008152600401610ea090612fef565b60405180910390fd5b610eb683838360016116ab565b8273ffffffffffffffffffffffffffffffffffffffff16610ed6826107d5565b73ffffffffffffffffffffffffffffffffffffffff1614610f2c576040517f08c379a0000000000000000000000000000000000000000000000000000000008152600401610f2390612f5d565b60405180910390fd5b6004600082815260200190815260200160002060006101000a81549073ffffffffffffffffffffffffffffffffffffffff02191690556001600360008573ffffffffffffffffffffffffffffffffffffffff1673ffffffffffffffffffffffffffffffffffffffff168152602001908152602001600020600082825403925050819055506001600360008473ffffffffffffffffffffffffffffffffffffffff1673ffffffffffffffffffffffffffffffffffffffff16815260200190815260200160002060008282540192505081905550816002600083815260200190815260200160002060006101000a81548173ffffffffffffffffffffffffffffffffffffffff021916908373ffffffffffffffffffffffffffffffffffffffff160217905550808273ffffffffffffffffffffffffffffffffffffffff168473ffffffffffffffffffffffffffffffffffffffff167fddf252ad1be2c89b69c2b068fc378daa952ba7f163c4a11628f55a4df523b3ef60405160405180910390a46110b883838360016116bd565b505050565b60006002600083815260200190815260200160002060009054906101000a900473ffffffffffffffffffffffffffffffffffffffff169050919050565b611102610c6e565b73ffffffffffffffffffffffffffffffffffffffff16611120610926565b73ffffffffffffffffffffffffffffffffffffffff1614611176576040517f08c379a000000000000000000000000000000000000000000000000000000000815260040161116d9061305b565b60405180910390fd5b565b6000600b60009054906101000a900473ffffffffffffffffffffffffffffffffffffffff16905081600b60006101000a81548173ffffffffffffffffffffffffffffffffffffffff021916908373ffffffffffffffffffffffffffffffffffffffff1602179055508173ffffffffffffffffffffffffffffffffffffffff168173ffffffffffffffffffffffffffffffffffffffff167f8be0079c531659141344cd1fd0a4f28419497f9722a3daafe3b4186f6b6457e060405160405180910390a35050565b8173ffffffffffffffffffffffffffffffffffffffff168373ffffffffffffffffffffffffffffffffffffffff16036112ac576040517f08c379a00000000000000000000000000000000000000000000000000000000081526004016112a3906130c7565b60405180910390fd5b80600560008573ffffffffffffffffffffffffffffffffffffffff1673ffffffffffffffffffffffffffffffffffffffff16815260200190815260200160002060008473ffffffffffffffffffffffffffffffffffffffff1673ffffffffffffffffffffffffffffffffffffffff16815260200190815260200160002060006101000a81548160ff0219169083151502179055508173ffffffffffffffffffffffffffffffffffffffff168373ffffffffffffffffffffffffffffffffffffffff167f17307eab39ab6107e8899845ad3d59bd9653f200f220920489ca2b5937696c318360405161139d9190612423565b60405180910390a3505050565b6113b5848484610dc4565b6113c1848484846116c3565b611400576040517f08c379a00000000000000000000000000000000000000000000000000000000081526004016113f790613159565b60405180910390fd5b50505050565b606061141182610c23565b6000600a6000848152602001908152602001600020805461143190612a21565b80601f016020809104026020016040519081016040528092919081815260200182805461145d90612a21565b80156114aa5780601f1061147f576101008083540402835291602001916114aa565b820191906000526020600020905b81548152906001019060200180831161148d57829003601f168201915b5050505050905060006114bb61184a565b905060008151036114d0578192505050611513565b6000825111156115055780826040516020016114ed9291906131b5565b60405160208183030381529060405292505050611513565b61150e84611861565b925050505b919050565b6001816000016000828254019250508190555050565b6115488282604051806020016040528060008152506118c9565b5050565b6115558261166a565b611594576040517f08c379a000000000000000000000000000000000000000000000000000000000815260040161158b9061324b565b60405180910390fd5b80600a600084815260200190815260200160002090816115b49190613417565b507ff8e1a15aba9398e019f0b49df1a4fde98ee17ae345cb5f6b5e2c27f5033e8ce7826040516115e49190612354565b60405180910390a15050565b60007f780e9d63000000000000000000000000000000000000000000000000000000007bffffffffffffffffffffffffffffffffffffffffffffffffffffffff1916827bffffffffffffffffffffffffffffffffffffffffffffffffffffffff19161480611663575061166282611924565b5b9050919050565b60008073ffffffffffffffffffffffffffffffffffffffff1661168c836110bd565b73ffffffffffffffffffffffffffffffffffffffff1614159050919050565b6116b784848484611a06565b50505050565b50505050565b60006116e48473ffffffffffffffffffffffffffffffffffffffff16611b64565b1561183d578373ffffffffffffffffffffffffffffffffffffffff1663150b7a0261170d610c6e565b8786866040518563ffffffff1660e01b815260040161172f949392919061353e565b6020604051808303816000875af192505050801561176b57506040513d601f19601f82011682018060405250810190611768919061359f565b60015b6117ed573d806000811461179b576040519150601f19603f3d011682016040523d82523d6000602084013e6117a0565b606091505b5060008151036117e5576040517f08c379a00000000000000000000000000000000000000000000000000000000081526004016117dc90613159565b60405180910390fd5b805181602001fd5b63150b7a0260e01b7bffffffffffffffffffffffffffffffffffffffffffffffffffffffff1916817bffffffffffffffffffffffffffffffffffffffffffffffffffffffff191614915050611842565b600190505b949350505050565b606060405180602001604052806000815250905090565b606061186c82610c23565b600061187661184a565b9050600081511161189657604051806020016040528060008152506118c1565b806118a084611b87565b6040516020016118b19291906131b5565b6040516020818303038152906040525b915050919050565b6118d38383611c55565b6118e060008484846116c3565b61191f576040517f08c379a000000000000000000000000000000000000000000000000000000000815260040161191690613159565b60405180910390fd5b505050565b60007f80ac58cd000000000000000000000000000000000000000000000000000000007bffffffffffffffffffffffffffffffffffffffffffffffffffffffff1916827bffffffffffffffffffffffffffffffffffffffffffffffffffffffff191614806119ef57507f5b5e139f000000000000000000000000000000000000000000000000000000007bffffffffffffffffffffffffffffffffffffffffffffffffffffffff1916827bffffffffffffffffffffffffffffffffffffffffffffffffffffffff1916145b806119ff57506119fe82611e72565b5b9050919050565b611a1284848484611edc565b6001811115611a56576040517f08c379a0000000000000000000000000000000000000000000000000000000008152600401611a4d9061363e565b60405180910390fd5b6000829050600073ffffffffffffffffffffffffffffffffffffffff168573ffffffffffffffffffffffffffffffffffffffff1603611a9d57611a9881611ee2565b611adc565b8373ffffffffffffffffffffffffffffffffffffffff168573ffffffffffffffffffffffffffffffffffffffff1614611adb57611ada8582611f2b565b5b5b600073ffffffffffffffffffffffffffffffffffffffff168473ffffffffffffffffffffffffffffffffffffffff1603611b1e57611b1981612098565b611b5d565b8473ffffffffffffffffffffffffffffffffffffffff168473ffffffffffffffffffffffffffffffffffffffff1614611b5c57611b5b8482612169565b5b5b5050505050565b6000808273ffffffffffffffffffffffffffffffffffffffff163b119050919050565b606060006001611b96846121e8565b01905060008167ffffffffffffffff811115611bb557611bb4612707565b5b6040519080825280601f01601f191660200182016040528015611be75781602001600182028036833780820191505090505b509050600082602001820190505b600115611c4a578080600190039150507f3031323334353637383961626364656600000000000000000000000000000000600a86061a8153600a8581611c3e57611c3d61365e565b5b04945060008503611bf5575b819350505050919050565b600073ffffffffffffffffffffffffffffffffffffffff168273ffffffffffffffffffffffffffffffffffffffff1603611cc4576040517f08c379a0000000000000000000000000000000000000000000000000000000008152600401611cbb906136d9565b60405180910390fd5b611ccd8161166a565b15611d0d576040517f08c379a0000000000000000000000000000000000000000000000000000000008152600401611d0490613745565b60405180910390fd5b611d1b6000838360016116ab565b611d248161166a565b15611d64576040517f08c379a0000000000000000000000000000000000000000000000000000000008152600401611d5b90613745565b60405180910390fd5b6001600360008473ffffffffffffffffffffffffffffffffffffffff1673ffffffffffffffffffffffffffffffffffffffff16815260200190815260200160002060008282540192505081905550816002600083815260200190815260200160002060006101000a81548173ffffffffffffffffffffffffffffffffffffffff021916908373ffffffffffffffffffffffffffffffffffffffff160217905550808273ffffffffffffffffffffffffffffffffffffffff16600073ffffffffffffffffffffffffffffffffffffffff167fddf252ad1be2c89b69c2b068fc378daa952ba7f163c4a11628f55a4df523b3ef60405160405180910390a4611e6e6000838360016116bd565b5050565b60007f01ffc9a7000000000000000000000000000000000000000000000000000000007bffffffffffffffffffffffffffffffffffffffffffffffffffffffff1916827bffffffffffffffffffffffffffffffffffffffffffffffffffffffff1916149050919050565b50505050565b6008805490506009600083815260200190815260200160002081905550600881908060018154018082558091505060019003906000526020600020016000909190919091505550565b60006001611f388461085b565b611f429190613794565b9050600060076000848152602001908152602001600020549050818114612027576000600660008673ffffffffffffffffffffffffffffffffffffffff1673ffffffffffffffffffffffffffffffffffffffff168152602001908152602001600020600084815260200190815260200160002054905080600660008773ffffffffffffffffffffffffffffffffffffffff1673ffffffffffffffffffffffffffffffffffffffff168152602001908152602001600020600084815260200190815260200160002081905550816007600083815260200190815260200160002081905550505b6007600084815260200190815260200160002060009055600660008573ffffffffffffffffffffffffffffffffffffffff1673ffffffffffffffffffffffffffffffffffffffff16815260200190815260200160002060008381526020019081526020016000206000905550505050565b600060016008805490506120ac9190613794565b90506000600960008481526020019081526020016000205490506000600883815481106120dc576120db612d2c565b5b9060005260206000200154905080600883815481106120fe576120fd612d2c565b5b90600052602060002001819055508160096000838152602001908152602001600020819055506009600085815260200190815260200160002060009055600880548061214d5761214c6137c8565b5b6001900381819060005260206000200160009055905550505050565b60006121748361085b565b905081600660008573ffffffffffffffffffffffffffffffffffffffff1673ffffffffffffffffffffffffffffffffffffffff168152602001908152602001600020600083815260200190815260200160002081905550806007600084815260200190815260200160002081905550505050565b600080600090507a184f03e93ff9f4daa797ed6e38ed64bf6a1f0100000000000000008310612246577a184f03e93ff9f4daa797ed6e38ed64bf6a1f010000000000000000838161223c5761223b61365e565b5b0492506040810190505b6d04ee2d6d415b85acef81000000008310612283576d04ee2d6d415b85acef810000000083816122795761227861365e565b5b0492506020810190505b662386f26fc1000083106122b257662386f26fc1000083816122a8576122a761365e565b5b0492506010810190505b6305f5e10083106122db576305f5e10083816122d1576122d061365e565b5b0492506008810190505b61271083106123005761271083816122f6576122f561365e565b5b0492506004810190505b6064831061232357606483816123195761231861365e565b5b0492506002810190505b600a8310612332576001810190505b80915050919050565b6000819050919050565b61234e8161233b565b82525050565b60006020820190506123696000830184612345565b92915050565b6000604051905090565b600080fd5b600080fd5b60007fffffffff0000000000000000000000000000000000000000000000000000000082169050919050565b6123b881612383565b81146123c357600080fd5b50565b6000813590506123d5816123af565b92915050565b6000602082840312156123f1576123f0612379565b5b60006123ff848285016123c6565b91505092915050565b60008115159050919050565b61241d81612408565b82525050565b60006020820190506124386000830184612414565b92915050565b600081519050919050565b600082825260208201905092915050565b60005b8381101561247857808201518184015260208101905061245d565b60008484015250505050565b6000601f19601f8301169050919050565b60006124a08261243e565b6124aa8185612449565b93506124ba81856020860161245a565b6124c381612484565b840191505092915050565b600060208201905081810360008301526124e88184612495565b905092915050565b6124f98161233b565b811461250457600080fd5b50565b600081359050612516816124f0565b92915050565b60006020828403121561253257612531612379565b5b600061254084828501612507565b91505092915050565b600073ffffffffffffffffffffffffffffffffffffffff82169050919050565b600061257482612549565b9050919050565b61258481612569565b82525050565b600060208201905061259f600083018461257b565b92915050565b6125ae81612569565b81146125b957600080fd5b50565b6000813590506125cb816125a5565b92915050565b600080604083850312156125e8576125e7612379565b5b60006125f6858286016125bc565b925050602061260785828601612507565b9150509250929050565b60008060006060848603121561262a57612629612379565b5b6000612638868287016125bc565b9350506020612649868287016125bc565b925050604061265a86828701612507565b9150509250925092565b60006020828403121561267a57612679612379565b5b6000612688848285016125bc565b91505092915050565b61269a81612408565b81146126a557600080fd5b50565b6000813590506126b781612691565b92915050565b600080604083850312156126d4576126d3612379565b5b60006126e2858286016125bc565b92505060206126f3858286016126a8565b9150509250929050565b600080fd5b600080fd5b7f4e487b7100000000000000000000000000000000000000000000000000000000600052604160045260246000fd5b61273f82612484565b810181811067ffffffffffffffff8211171561275e5761275d612707565b5b80604052505050565b600061277161236f565b905061277d8282612736565b919050565b600067ffffffffffffffff82111561279d5761279c612707565b5b6127a682612484565b9050602081019050919050565b82818337600083830152505050565b60006127d56127d084612782565b612767565b9050828152602081018484840111156127f1576127f0612702565b5b6127fc8482856127b3565b509392505050565b600082601f830112612819576128186126fd565b5b81356128298482602086016127c2565b91505092915050565b6000806000806080858703121561284c5761284b612379565b5b600061285a878288016125bc565b945050602061286b878288016125bc565b935050604061287c87828801612507565b925050606085013567ffffffffffffffff81111561289d5761289c61237e565b5b6128a987828801612804565b91505092959194509250565b600067ffffffffffffffff8211156128d0576128cf612707565b5b6128d982612484565b9050602081019050919050565b60006128f96128f4846128b5565b612767565b90508281526020810184848401111561291557612914612702565b5b6129208482856127b3565b509392505050565b600082601f83011261293d5761293c6126fd565b5b813561294d8482602086016128e6565b91505092915050565b6000806040838503121561296d5761296c612379565b5b600061297b858286016125bc565b925050602083013567ffffffffffffffff81111561299c5761299b61237e565b5b6129a885828601612928565b9150509250929050565b600080604083850312156129c9576129c8612379565b5b60006129d7858286016125bc565b92505060206129e8858286016125bc565b9150509250929050565b7f4e487b7100000000000000000000000000000000000000000000000000000000600052602260045260246000fd5b60006002820490506001821680612a3957607f821691505b602082108103612a4c57612a4b6129f2565b5b50919050565b7f4552433732313a20617070726f76616c20746f2063757272656e74206f776e6560008201527f7200000000000000000000000000000000000000000000000000000000000000602082015250565b6000612aae602183612449565b9150612ab982612a52565b604082019050919050565b60006020820190508181036000830152612add81612aa1565b9050919050565b7f4552433732313a20617070726f76652063616c6c6572206973206e6f7420746f60008201527f6b656e206f776e6572206f7220617070726f76656420666f7220616c6c000000602082015250565b6000612b40603d83612449565b9150612b4b82612ae4565b604082019050919050565b60006020820190508181036000830152612b6f81612b33565b9050919050565b7f4552433732313a2063616c6c6572206973206e6f7420746f6b656e206f776e6560008201527f72206f7220617070726f76656400000000000000000000000000000000000000602082015250565b6000612bd2602d83612449565b9150612bdd82612b76565b604082019050919050565b60006020820190508181036000830152612c0181612bc5565b9050919050565b7f455243373231456e756d657261626c653a206f776e657220696e646578206f7560008201527f74206f6620626f756e6473000000000000000000000000000000000000000000602082015250565b6000612c64602b83612449565b9150612c6f82612c08565b604082019050919050565b60006020820190508181036000830152612c9381612c57565b9050919050565b7f455243373231456e756d657261626c653a20676c6f62616c20696e646578206f60008201527f7574206f6620626f756e64730000000000000000000000000000000000000000602082015250565b6000612cf6602c83612449565b9150612d0182612c9a565b604082019050919050565b60006020820190508181036000830152612d2581612ce9565b9050919050565b7f4e487b7100000000000000000000000000000000000000000000000000000000600052603260045260246000fd5b7f4552433732313a20696e76616c696420746f6b656e2049440000000000000000600082015250565b6000612d91601883612449565b9150612d9c82612d5b565b602082019050919050565b60006020820190508181036000830152612dc081612d84565b9050919050565b7f4552433732313a2061646472657373207a65726f206973206e6f74206120766160008201527f6c6964206f776e65720000000000000000000000000000000000000000000000602082015250565b6000612e23602983612449565b9150612e2e82612dc7565b604082019050919050565b60006020820190508181036000830152612e5281612e16565b9050919050565b7f4f776e61626c653a206e6577206f776e657220697320746865207a65726f206160008201527f6464726573730000000000000000000000000000000000000000000000000000602082015250565b6000612eb5602683612449565b9150612ec082612e59565b604082019050919050565b60006020820190508181036000830152612ee481612ea8565b9050919050565b7f4552433732313a207472616e736665722066726f6d20696e636f72726563742060008201527f6f776e6572000000000000000000000000000000000000000000000000000000602082015250565b6000612f47602583612449565b9150612f5282612eeb565b604082019050919050565b60006020820190508181036000830152612f7681612f3a565b9050919050565b7f4552433732313a207472616e7366657220746f20746865207a65726f2061646460008201527f7265737300000000000000000000000000000000000000000000000000000000602082015250565b6000612fd9602483612449565b9150612fe482612f7d565b604082019050919050565b6000602082019050818103600083015261300881612fcc565b9050919050565b7f4f776e61626c653a2063616c6c6572206973206e6f7420746865206f776e6572600082015250565b6000613045602083612449565b91506130508261300f565b602082019050919050565b6000602082019050818103600083015261307481613038565b9050919050565b7f4552433732313a20617070726f766520746f2063616c6c657200000000000000600082015250565b60006130b1601983612449565b91506130bc8261307b565b602082019050919050565b600060208201905081810360008301526130e0816130a4565b9050919050565b7f4552433732313a207472616e7366657220746f206e6f6e20455243373231526560008201527f63656976657220696d706c656d656e7465720000000000000000000000000000602082015250565b6000613143603283612449565b915061314e826130e7565b604082019050919050565b6000602082019050818103600083015261317281613136565b9050919050565b600081905092915050565b600061318f8261243e565b6131998185613179565b93506131a981856020860161245a565b80840191505092915050565b60006131c18285613184565b91506131cd8284613184565b91508190509392505050565b7f45524337323155524953746f726167653a2055524920736574206f66206e6f6e60008201527f6578697374656e7420746f6b656e000000000000000000000000000000000000602082015250565b6000613235602e83612449565b9150613240826131d9565b604082019050919050565b6000602082019050818103600083015261326481613228565b9050919050565b60008190508160005260206000209050919050565b60006020601f8301049050919050565b600082821b905092915050565b6000600883026132cd7fffffffffffffffffffffffffffffffffffffffffffffffffffffffffffffffff82613290565b6132d78683613290565b95508019841693508086168417925050509392505050565b6000819050919050565b600061331461330f61330a8461233b565b6132ef565b61233b565b9050919050565b6000819050919050565b61332e836132f9565b61334261333a8261331b565b84845461329d565b825550505050565b600090565b61335761334a565b613362818484613325565b505050565b5b818110156133865761337b60008261334f565b600181019050613368565b5050565b601f8211156133cb5761339c8161326b565b6133a584613280565b810160208510156133b4578190505b6133c86133c085613280565b830182613367565b50505b505050565b600082821c905092915050565b60006133ee600019846008026133d0565b1980831691505092915050565b600061340783836133dd565b9150826002028217905092915050565b6134208261243e565b67ffffffffffffffff81111561343957613438612707565b5b6134438254612a21565b61344e82828561338a565b600060209050601f831160018114613481576000841561346f578287015190505b61347985826133fb565b8655506134e1565b601f19841661348f8661326b565b60005b828110156134b757848901518255600182019150602085019450602081019050613492565b868310156134d457848901516134d0601f8916826133dd565b8355505b6001600288020188555050505b505050505050565b600081519050919050565b600082825260208201905092915050565b6000613510826134e9565b61351a81856134f4565b935061352a81856020860161245a565b61353381612484565b840191505092915050565b6000608082019050613553600083018761257b565b613560602083018661257b565b61356d6040830185612345565b818103606083015261357f8184613505565b905095945050505050565b600081519050613599816123af565b92915050565b6000602082840312156135b5576135b4612379565b5b60006135c38482850161358a565b91505092915050565b7f455243373231456e756d657261626c653a20636f6e736563757469766520747260008201527f616e7366657273206e6f7420737570706f727465640000000000000000000000602082015250565b6000613628603583612449565b9150613633826135cc565b604082019050919050565b600060208201905081810360008301526136578161361b565b9050919050565b7f4e487b7100000000000000000000000000000000000000000000000000000000600052601260045260246000fd5b7f4552433732313a206d696e7420746f20746865207a65726f2061646472657373600082015250565b60006136c3602083612449565b91506136ce8261368d565b602082019050919050565b600060208201905081810360008301526136f2816136b6565b9050919050565b7f4552433732313a20746f6b656e20616c7265616479206d696e74656400000000600082015250565b600061372f601c83612449565b915061373a826136f9565b602082019050919050565b6000602082019050818103600083015261375e81613722565b9050919050565b7f4e487b7100000000000000000000000000000000000000000000000000000000600052601160045260246000fd5b600061379f8261233b565b91506137aa8361233b565b92508282039050818111156137c2576137c1613765565b5b92915050565b7f4e487b7100000000000000000000000000000000000000000000000000000000600052603160045260246000fdfea264697066735822122010465b30454accecfecf550fe555d4c6b6a17b275843fdb4047148b613dbf33c64736f6c63430008120033",
  "linkReferences": {},
  "deployedLinkReferences": {}
}